:020000040000FA
:020000000528D1
:08000800F02883160313F03009
:1000100086008701880183160317880189018312EE
:10002000031386018701FF308800B601AD01AE01E0
:10003000AF01B001B101B201B301B401BB01BC0118
:100040000130BA00A03084008001840A0408E63A36
:10005000031D242883120313343090000B308F00CB
:10006000DB308E00831603130C14831203130C1061
:100070008B170B1783160313811383160313F030AA
:1000800095008312031302305F200030A50000307A
:10009000A6000030A7000830A800B0000030A9007A
:1000A0000030AA000030AB000030AC000830B500D2
:1000B000D3203608003E0319582810147828A300CE
:1000C0006430A200FA30A000652866286728000086
:1000D000A00B6428A20B6228A30B602808006430E0
:1000E000A0007228732874280000A00B7128080053
:1000F00088203B1C782810100830A4006430A3002E
:100100008820A30B802801305F20A40B7E280528BF
:100110002508B92007146F200710D3202608B9201E
:1001200087146F208710D3202708B92007156F2068
:100130000711D3202808B92087156F208711D320F5
:100140002908B92007166F200712D3202A08B920E2
:1001500087166F208712D3202B08B92007176F202E
:100160000713D3202C08B92087176F208713D320BB
:100170000800A000081488140815881508168816A9
:100180000817881720180810A018881020190811BF
:10019000A0198811201A0812A01A8812201B08130F
:1001A000A01B88130800861FDC28061FE128861E76
:1001B000E628061EEB280800B618E1280130B60034
:1001C00008003618DC280230B6000800B619EB2803
:1001D0000430B60008003619E6280830B6000800DA
:1001E0000C10B70003088301B8000A08B90010100A
:1001F0003D088F00DB308E001014BC1B0429BC0AA4
:100200003C080A3A03197422B51B2E29351B2A29EA
:10021000B51A2629351A2229B5191E2935191A2980
:10022000B51816292D087021322195292E08702124
:10023000322195292F08702132219529300870210B
:1002400032219529310870213221952932087021F7
:1002500032219529330870213221952934087021E3
:1002600032219529B401B301B201B101B001AF014E
:10027000AE01AD01B51B4D29351B5229B51A5729C1
:10028000351A5C29B519612935196629B5186B2904
:10029000AD00A20003015A220800B400A2000730FA
:1002A0005A220800B300A20006305A220800B20009
:1002B000A20005305A220800B100A20004305A22E0
:1002C0000800B000A20003305A220800AF00A200CC
:1002D00002305A220800AE00A20001305A22080063
:1002E00036187729B6187D29361986298C29A40055
:1002F000A40C0318A41724080800A400A40D0318D4
:10030000832124080800A40124140800A400B50CCB
:100310000318B51724080800A400B50D031892218E
:1003200024080800B50135140800AD212D08A504E6
:100330002E08A6042F08A7043008A8043108A90431
:100340003208AA043308AB043408AC0439088A0024
:1003500038088300B70E370E0900A030A100A201B3
:100360002108840001308002031C80010008003E47
:100370000319D121A20AA20AA10A2108E03A031D09
:10038000B0292308840000300007031DCA213A0861
:1003900080000800801BCE293B140800BC01BA0A6B
:1003A0000800DA30220701300318013E8A00DA30F3
:1003B00022078200251008002610080027100800D8
:1003C00028100800291008002A1008002B10080027
:1003D0002C100800A5100800A6100800A71008009F
:1003E000A8100800A9100800AA100800AB10080007
:1003F000AC1008002511080026110800271108007C
:1004000028110800291108002A1108002B110800E2
:100410002C110800A5110800A6110800A71108005A
:10042000A8110800A9110800AA110800AB110800C2
:10043000AC11080025120800261208002712080037
:1004400028120800291208002A1208002B1208009E
:100450002C120800A5120800A6120800A712080016
:10046000A8120800A9120800AA120800AB1208007E
:10047000AC120800251308002613080027130800F3
:1004800028130800291308002A1308002B1308005A
:100490002C130800A5130800A6130800A7130800D2
:1004A000A8130800A9130800AA130800AB1308003A
:1004B000AC130800A03EA21B383E221B303EA21AFD
:1004C000283E221A203EA219183E2219103EA218D8
:1004D000083EA300FF30A500A600A700A800A900C1
:1004E000AA00AB00AC0008008030BC008A229F3E0E
:1004F0008400840A0008003E0319852A0408213E6E
:10050000031C792A9F308400792AFF30800007304D
:10051000BD0708003A08A2009530220702300318F0
:10052000013E8A00953022078200023431340734BC
:100530003E340B342A343234253436342F340334E9
:100540003B343D34153406342834133422340A3411
:10055000083429343A3412342E3435341A343334CE
:100560001934213401342D3409340034393423341E
:10057000203434341134043416342B3437340534F5
:100580000C343C34103414341E3427343F341834C3
:100590001F343834243430340D341B340F341734C2
:0A05A00026342C341C340E341D34B4
:02400E00C123CC
:00000001FF
