:020000040000FA
:020000000528D1
:08000800ED2883160313F0300C
:1000100086008701880183160317880189018312EE
:10002000031386018701FF308800B601AD01AE01E0
:10003000AF01B001B101BB01BC010330BA00A03077
:1000400084008001840A0408E63A031D21288312F3
:100050000313343090000B308F00DB308E0083169A
:1000600003130C14831203130C108B170B17831636
:100070000313811383160313F030950083120313C7
:1000800002305C200030A5000030A6000030A70040
:100090000830A800B0000030A9000030AA000030ED
:1000A000AB000030AC000830B500D0203608003E70
:1000B0000319552810147528A3006430A200FA30E3
:1000C000A0006228632864280000A00B6128A20B0E
:1000D0005F28A30B5D2808006430A0006F287028FB
:1000E00071280000A00B6E28080085203B1C752895
:1000F00010100830A4006430A3008520A30B7D28D5
:1001000001305C20A40B7B2805282508B6200714A5
:100110006C200710D0202608B62087146C2087108A
:10012000D0202708B62007156C200711D0202808FA
:10013000B62087156C208711D0202908B620071615
:100140006C200712D0202A08B62087166C20871250
:10015000D0202B08B62007176C200713D0202C08BE
:10016000B62087176C208713D0200800A000081441
:100170008814081588150816881608178817201877
:100180000810A018881020190811A0198811201A29
:100190000812A01A8812201B0813A01B881308003D
:1001A000861FD928061FDE28861EE328061EE8289B
:1001B0000800B618DE280130B60008003618D92825
:1001C0000230B6000800B619E8280430B60008006E
:1001D0003619E3280830B60008000C10B7000308F1
:1001E0008301B8000A08B90010103D088F00DB3009
:1001F0008E001014BC1B0129BC0A3C080A3A0319E2
:100200007122B51B2B29351B2729B51A2329351A2D
:100210001F29B5191B2935191729B51813292D08B8
:100220006D212F2192292E086D212F2192292F082F
:100230006D212F21922930086D212F21922931081B
:100240006D212F21922932086D212F219229330807
:100250006D212F21922934086D212F219229B4017B
:10026000B301B201B101B001AF01AE01AD01B51BE7
:100270004A29351B4F29B51A5429351A5929B51958
:100280005E2935196329B5186829AD00A20003015C
:1002900057220800B400A200073057220800B3001C
:1002A000A200063057220800B200A20005305722F3
:1002B0000800B100A200043057220800B000A200DC
:1002C000033057220800AF00A20002305722080076
:1002D000AE00A20001305722080036187429B61863
:1002E0007A29361983298929A400A40C0318A41794
:1002F00024080800A400A40D031880212408080085
:10030000A40124140800A400B50C0318B517240890
:100310000800A400B50D03188F2124080800B501BA
:1003200035140800AA212D08A5042E08A6042F08BC
:10033000A7043008A8043108A90432082A043308A5
:100340002B0434082C0439088A0038088300B70EBF
:10035000370E0900A030A100A2012108840001305D
:100360008002031C80010008003E0319CE21A20A6E
:10037000A20AA10A2108DF3A031DAD29230884003F
:1003800000300007031DC7213A0880000800801BC9
:10039000CB293B140800BC01BA0A0800D730220759
:1003A00001300318013E8A00D73022078200251051
:1003B000080026100800271008002810080029103F
:1003C00008002A1008002B1008002C100800A510A7
:1003D0000800A6100800A7100800A8100800A9101F
:1003E0000800AA100800AB100800AC100800251186
:1003F00008002611080027110800281108002911FB
:1004000008002A1108002B1108002C110800A51162
:100410000800A6110800A7110800A8110800A911DA
:100420000800AA110800AB110800AC110800251241
:1004300008002612080027120800281208002912B6
:1004400008002A1208002B1208002C120800A5121E
:100450000800A6120800A7120800A8120800A91296
:100460000800AA120800AB120800AC1208002513FD
:100470000800261308002713080028130800291372
:1004800008002A1308002B1308002C130800A513DA
:100490000800A6130800A7130800A8130800A91352
:1004A0000800AA130800AB130800AC130800A03E14
:1004B000A21B383E221B303EA21A283E221A203EA2
:1004C000A219183E2219103EA218083EA3007F3040
:1004D000A500A600A700A800A900AA00AB00AC00D8
:1004E00008008030BC0087229F3E8400840A0008F8
:1004F000003E0319822A0408213E031C762A9F30FD
:100500008400762AFF3080000730BD0708003A08D3
:10051000A2009230220702300318013E8A00923076
:10052000220782000234313407343E340B342A343B
:100530003234253436342F3403343B343D341534CF
:1005400006342834133422340A34083429343A3433
:1005500012342E3435341A343334193421340134FE
:100560002D340934003439342334203434341134F4
:10057000043416342B34373405340C343C34103402
:1005800014341E3427343F3418341F3438342434A0
:1005900030340D341B340F34173426342C341C34CF
:0405A0000E341D34C4
:02400E00C123CC
:00000001FF
