:020000040000FA
:020000000528D1
:08000800F92883160313F03000
:1000100086008701880183160317880189018312EE
:10002000031386018701FF308800B601AD01AE01E0
:10003000AF01B001B101B201B301B401BB01BC0118
:100040000130BA00A03084008001840A0408E63A36
:10005000031D2428831603138C16831203138C129A
:1000600083120313903083120313343090000B304B
:100070008F00DB308E00831603130C1483120313DE
:100080000C108B170B17831603138113831603139E
:10009000F030950083120313023068200030A50071
:1000A0000030A6000030A7000830A800B0000030E3
:1000B000A9000030AA000030AB000030AC000830CE
:1000C000B500DC203608003E031961281014812891
:1000D000A3006430A200FA30A0006E286F287028B8
:1000E0000000A00B6D28A20B6B28A30B6928080049
:1000F0006430A0007B287C287D280000A00B7A2893
:10010000080091203B1C812810100830A4006430A6
:10011000A3009120A30B892801306820A40B872815
:1001200005282508C220071478200710DC2026089F
:10013000C220871478208710DC202708C2200715EA
:1001400078200711DC202808C22087157820871125
:10015000DC202908C220071678200712DC202A0894
:10016000C220871678208712DC202B08C2200615B3
:1001700078200611DC202C08C220861578208611F4
:10018000DC200800A000081488140815881508163B
:1001900088160817881720180810A018881020192A
:1001A0000811A0198811201A0812A01A8812201B01
:1001B0000813A01B88130800861FE528061FEA28DD
:1001C000861EEF28061EF4280800B618EA2801301B
:1001D000B60008003618E5280230B6000800B61947
:1001E000F4280430B60008003619EF280830B600AD
:1001F0000800831203130C1805298C1A0029BC2946
:10020000831203131A08B600BC290C10B7000308A8
:100210008301B8000A08B90010103D088F00DB30D8
:100220008E001014BC1B1929BC0A3C080A3A031999
:100230008A22B51B4329351B3F29B51A3B29351A9C
:100240003729B519332935192F29B5182B292D0828
:1002500085214721AA292E0885214721AA292F086F
:1002600085214721AA29300885214721AA2931085B
:1002700085214721AA29320885214721AA29330847
:1002800085214721AA29340885214721AA29B401BB
:10029000B301B201B101B001AF01AE01AD01B51BB7
:1002A0006229351B6729B51A6C29351A7129B519C8
:1002B000762935197B29B5188029AD00A2000301E4
:1002C00070220800B400A200073070220800B300BA
:1002D000A200063070220800B200A2000530702291
:1002E0000800B100A200043070220800B000A20093
:1002F000033070220800AF00A20002307022080014
:10030000AE00A20001307022080036188C29B61801
:10031000922936199B29A129A400A40C0318A4171B
:1003200024080800A400A40D03189821240808003C
:10033000A40124140800A400B50C0318B517240860
:100340000800A400B50D0318A72124080800B50172
:1003500035140800C3212D08A5042E08A6042F0873
:10036000A7043008A8043108A9043208AA043308F5
:10037000AB043408AC04BC2939088A00380883006F
:10038000B70E370E0900A030A100A2012108840099
:1003900001308002031C80010008003E0319E721A0
:1003A000A20AA20AA10A2108E03A031DC6292308CD
:1003B000840000300007031DE0213A088000080097
:1003C000801BE4293B140800BC01BA0A0800F03085
:1003D000220701300318013E8A00F0302207820014
:1003E0002510080026100800271008002810080013
:1003F000291008002A1008002B1008002C100800F3
:10040000A5100800A6100800A7100800A8100800F2
:10041000A9100800AA100800AB100800AC100800D2
:1004200025110800261108002711080028110800CE
:10043000291108002A1108002B1108002C110800AE
:10044000A5110800A6110800A7110800A8110800AE
:10045000A9110800AA110800AB110800AC1108008E
:10046000251208002612080027120800281208008A
:10047000291208002A1208002B1208002C1208006A
:10048000A5120800A6120800A7120800A81208006A
:10049000A9120800AA120800AB120800AC1208004A
:1004A0002513080026130800271308002813080046
:1004B000291308002A1308002B1308002C13080026
:1004C000A5130800A6130800A7130800A813080026
:1004D000A9130800AA130800AB130800AC13080006
:1004E000A03EA21B383E221B303EA21A283E221AF2
:1004F000203EA219183E2219103EA218083EA30061
:10050000FF30A500A600A700A800A900AA00AB0024
:10051000AC0008008030BC00A0229F3E8400840A0A
:100520000008003E03199B2A0408213E031C8F2A61
:100530009F3084008F2AFF3080000730BD070800FD
:100540003A08A200AB30220702300318013E8A00AD
:10055000AB30220782000234313407343E340B348E
:100560002A343234253436342F3403343B343D348A
:10057000153406342834133422340A340834293428
:100580003A3412342E3435341A3433341934213495
:1005900001342D34093400343934233420343434D4
:1005A0001134043416342B34373405340C343C34D1
:1005B000103414341E3427343F3418341F34383484
:1005C000243430340D341B340F34173426342C3497
:0605D0001C340E341D3442
:02400E00E520AB
:02401000FF3F70
:00000001FF
