:020000040000FA
:020000000528D1
:08000800DE2883160313F0301B
:1000100086008701880183160317880189018312EE
:10002000031386018701FF308800B601AD01AE01E0
:10003000AF01B001B101B201B301B401BB01BC0118
:100040000130BA00A03084008001840A0408E63A36
:10005000031D2428831603138C160C168312031316
:100060008C120C128312031318169817831603139D
:100070001D3099008B150B10F0309600831203137E
:10008000343090000B308F00DB308E00831603136A
:100090000C14831203130C108B170B178316031306
:1000A000811383160313F03095008312031302307B
:1000B00072200030A5000030A6000030A7000830F4
:1000C000A800B0000030A9000030AA000030AB004A
:1000D0000030AC000830B5003608003E03196C282B
:1000E00010148B28A3006430A200FA30A0007828F6
:1000F00079287A280000A00B7728A20B7528A30B7B
:10010000732808006430A00085288628872800000E
:10011000A00B842808009B203B1C8B281010083063
:10012000A4006430A3009B20A30B9328013072200D
:10013000A40B912805282508C42007148220071045
:100140002608C4208714822087102708C42007159A
:10015000822007112808C4208715822087112908CA
:10016000C4200716822007122A08C420871682207E
:1001700087122B08C4200615822006112C08C420E3
:100180008615822086110800A0000814881408151E
:100190008815081688160817881720180810A01840
:1001A000881020190811A0198811201A0812A01A05
:1001B0008812201B0813A01B88130800BB21831280
:1001C00003130C180A298C1A05290B18E828C229D0
:1001D000861FF128061FF628861EFB28061E00290A
:1001E000C229B618F6280130B600C2293618F128FF
:1001F0000230B600C229B61900290430B600C2295F
:100200003619FB280830B600C229831203131A08D6
:10021000B600C2290C1010103D088F00DB308E0094
:100220001014BC1B1829BC0A3C080A3A0319902276
:10023000B51B4229351B3E29B51A3A29351A3629EC
:10024000B519322935192E29B5182A292D088421E6
:100250004621A9292E0884214621A9292F08842175
:100260004621A929300884214621A9293108842161
:100270004621A929320884214621A929330884214D
:100280004621A929340884214621A929B401B301B2
:10029000B201B101B001AF01AE01AD01B51B6129E1
:1002A000351B6629B51A6B29351A7029B5197529B8
:1002B00035197A29B5187F29AD00A20003017622ED
:1002C0000800B400A200073076220800B300A200A4
:1002D000063076220800B200A2000530762208001F
:1002E000B100A200043076220800B000A200033062
:1002F00076220800AF00A200023076220800AE008D
:10030000A20001307622080036188B29B6189129F0
:1003100036199A29A029A400A40C0318A4172408AC
:100320000800A400A40D0318972124080800A401C4
:1003300024140800A400B50C0318B51724080800FD
:10034000A400B50D0318A62124080800B501351432
:100350000800C9212D08A5042E08A6042F08A7040B
:100360003008A8043108A9043208AA043308AB04F1
:100370003408AC04C229B70003088301B8000A0896
:10038000B900080039088A0038088300B70E370E14
:100390000900A030A100A2012108840001308002E0
:1003A000031C80010008003E0319ED21A20AA20AE5
:1003B000A10A2108E03A031DCC292308840000305B
:1003C0000007031DE6213A0880000800801BEA2987
:1003D0003B140800BC01BA0A0800F63022070130BD
:1003E0000318013E8A00F63022078200251008001B
:1003F00026100800271008002810080029100800FF
:100400002A1008002B1008002C100800A510080066
:10041000A6100800A7100800A8100800A9100800DE
:10042000AA100800AB100800AC1008002511080045
:1004300026110800271108002811080029110800BA
:100440002A1108002B1108002C110800A511080022
:10045000A6110800A7110800A8110800A91108009A
:10046000AA110800AB110800AC1108002512080001
:100470002612080027120800281208002912080076
:100480002A1208002B1208002C120800A5120800DE
:10049000A6120800A7120800A8120800A912080056
:1004A000AA120800AB120800AC12080025130800BD
:1004B0002613080027130800281308002913080032
:1004C0002A1308002B1308002C130800A51308009A
:1004D000A6130800A7130800A8130800A913080012
:1004E000AA130800AB130800AC130800A03EA21B1F
:1004F000383E221B303EA21A283E221A203EA21964
:10050000183E2219103EA218083EA300FF30A50095
:10051000A600A700A800A900AA00AB00AC00080034
:100520008030BC00A6229F3E8400840A0008003E62
:100530000319A12A0408213E031C952A9F30840038
:10054000952AFF3080000730BD0708003A08A20056
:10055000B130220702300318013E8A00B130220771
:1005600082000234313407343E340B342A343234BE
:10057000253436342F3403343B343D3415340634BB
:100580002834133422340A34083429343A341234E7
:100590002E3435341A3433341934213401342D34A3
:1005A00009340034393423342034343411340434DD
:1005B00016342B34373405340C343C3410341434B2
:1005C0001E3427343F3418341F3438342434303444
:1005D0000D341B340F34173426342C341C340E34B1
:0205E0001D34C8
:02400E00E520AB
:02401000FF3F70
:00000001FF
